{
  "_format": "hh-sol-artifact-1",
  "contractName": "SmartMessContract",
  "sourceName": "contracts/SmartMessContract.sol",
  "abi": [
    {
      "inputs": [],
      "stateMutability": "nonpayable",
      "type": "constructor"
    },
    {
      "anonymous": false,
      "inputs": [
        {
          "indexed": true,
          "internalType": "uint256",
          "name": "studentId",
          "type": "uint256"
        },
        {
          "indexed": true,
          "internalType": "string",
          "name": "receiptId",
          "type": "string"
        },
        {
          "indexed": false,
          "internalType": "uint256",
          "name": "amount",
          "type": "uint256"
        },
        {
          "indexed": false,
          "internalType": "uint256",
          "name": "timestamp",
          "type": "uint256"
        },
        {
          "indexed": false,
          "internalType": "bytes32",
          "name": "methodHash",
          "type": "bytes32"
        }
      ],
      "name": "FeeRecorded",
      "type": "event"
    },
    {
      "inputs": [],
      "name": "admin",
      "outputs": [
        {
          "internalType": "address",
          "name": "",
          "type": "address"
        }
      ],
      "stateMutability": "view",
      "type": "function"
    },
    {
      "inputs": [],
      "name": "getContractInfo",
      "outputs": [
        {
          "internalType": "string",
          "name": "",
          "type": "string"
        }
      ],
      "stateMutability": "pure",
      "type": "function"
    },
    {
      "inputs": [
        {
          "internalType": "uint256",
          "name": "studentId",
          "type": "uint256"
        },
        {
          "internalType": "string",
          "name": "receiptId",
          "type": "string"
        },
        {
          "internalType": "uint256",
          "name": "amount",
          "type": "uint256"
        },
        {
          "internalType": "string",
          "name": "method",
          "type": "string"
        }
      ],
      "name": "recordFee",
      "outputs": [],
      "stateMutability": "nonpayable",
      "type": "function"
    },
    {
      "inputs": [
        {
          "internalType": "address",
          "name": "newAdmin",
          "type": "address"
        }
      ],
      "name": "transferAdmin",
      "outputs": [],
      "stateMutability": "nonpayable",
      "type": "function"
    }
  ],
  "bytecode": "0x6080604052348015600f57600080fd5b50336000806101000a81548173ffffffffffffffffffffffffffffffffffffffff021916908373ffffffffffffffffffffffffffffffffffffffff1602179055506108d68061005f6000396000f3fe608060405234801561001057600080fd5b506004361061004c5760003560e01c80630cb139e21461005157806375829def1461006d5780637cc1f86714610089578063f851a440146100a7575b600080fd5b61006b6004803603810190610066919061044e565b6100c5565b005b61008760048036038101906100829190610553565b610208565b005b610091610348565b60405161009e9190610610565b60405180910390f35b6100af610385565b6040516100bc9190610641565b60405180910390f35b60008054906101000a900473ffffffffffffffffffffffffffffffffffffffff1673ffffffffffffffffffffffffffffffffffffffff163373ffffffffffffffffffffffffffffffffffffffff1614610153576040517f08c379a000000000000000000000000000000000000000000000000000000000815260040161014a906106a8565b60405180910390fd5b60008311610196576040517f08c379a000000000000000000000000000000000000000000000000000000000815260040161018d90610714565b60405180910390fd5b84846040516101a6929190610773565b6040518091039020867e9f9b560fab0367387bbfc1a9db1c74b3eb0063a0045d64ca81c232d24dcdf6854286866040516101e19291906107bc565b60405180910390206040516101f8939291906107fd565b60405180910390a3505050505050565b60008054906101000a900473ffffffffffffffffffffffffffffffffffffffff1673ffffffffffffffffffffffffffffffffffffffff163373ffffffffffffffffffffffffffffffffffffffff1614610296576040517f08c379a000000000000000000000000000000000000000000000000000000000815260040161028d906106a8565b60405180910390fd5b600073ffffffffffffffffffffffffffffffffffffffff168173ffffffffffffffffffffffffffffffffffffffff1603610305576040517f08c379a00000000000000000000000000000000000000000000000000000000081526004016102fc90610880565b60405180910390fd5b806000806101000a81548173ffffffffffffffffffffffffffffffffffffffff021916908373ffffffffffffffffffffffffffffffffffffffff16021790555050565b60606040518060400160405280601f81526020017f536d617274204d6573732053797374656d20466565204c656467657220763100815250905090565b60008054906101000a900473ffffffffffffffffffffffffffffffffffffffff1681565b600080fd5b600080fd5b6000819050919050565b6103c6816103b3565b81146103d157600080fd5b50565b6000813590506103e3816103bd565b92915050565b600080fd5b600080fd5b600080fd5b60008083601f84011261040e5761040d6103e9565b5b8235905067ffffffffffffffff81111561042b5761042a6103ee565b5b602083019150836001820283011115610447576104466103f3565b5b9250929050565b6000806000806000806080878903121561046b5761046a6103a9565b5b600061047989828a016103d4565b965050602087013567ffffffffffffffff81111561049a576104996103ae565b5b6104a689828a016103f8565b955095505060406104b989828a016103d4565b935050606087013567ffffffffffffffff8111156104da576104d96103ae565b5b6104e689828a016103f8565b92509250509295509295509295565b600073ffffffffffffffffffffffffffffffffffffffff82169050919050565b6000610520826104f5565b9050919050565b61053081610515565b811461053b57600080fd5b50565b60008135905061054d81610527565b92915050565b600060208284031215610569576105686103a9565b5b60006105778482850161053e565b91505092915050565b600081519050919050565b600082825260208201905092915050565b60005b838110156105ba57808201518184015260208101905061059f565b60008484015250505050565b6000601f19601f8301169050919050565b60006105e282610580565b6105ec818561058b565b93506105fc81856020860161059c565b610605816105c6565b840191505092915050565b6000602082019050818103600083015261062a81846105d7565b905092915050565b61063b81610515565b82525050565b60006020820190506106566000830184610632565b92915050565b7f4e6f7420617574686f72697a6564000000000000000000000000000000000000600082015250565b6000610692600e8361058b565b915061069d8261065c565b602082019050919050565b600060208201905081810360008301526106c181610685565b9050919050565b7f496e76616c696420616d6f756e74000000000000000000000000000000000000600082015250565b60006106fe600e8361058b565b9150610709826106c8565b602082019050919050565b6000602082019050818103600083015261072d816106f1565b9050919050565b600081905092915050565b82818337600083830152505050565b600061075a8385610734565b935061076783858461073f565b82840190509392505050565b600061078082848661074e565b91508190509392505050565b600081905092915050565b60006107a3838561078c565b93506107b083858461073f565b82840190509392505050565b60006107c9828486610797565b91508190509392505050565b6107de816103b3565b82525050565b6000819050919050565b6107f7816107e4565b82525050565b600060608201905061081260008301866107d5565b61081f60208301856107d5565b61082c60408301846107ee565b949350505050565b7f496e76616c696420616464726573730000000000000000000000000000000000600082015250565b600061086a600f8361058b565b915061087582610834565b602082019050919050565b600060208201905081810360008301526108998161085d565b905091905056fea2646970667358221220da823c2c7fcdc3a73ebdba4b7add22e25e20b8c64910b14a89d30b296027402264736f6c634300081c0033",
  "linkReferences": {},
  "deployedLinkReferences": {}
}